:02000000E72BEC
:100716003F3406345B344F3466346D347C340734EE
:100726007F346F3483168601850183129C010A305B
:100736001C02031C9F2BA02BA12BB52B98010A3062
:100746001802031CA72BA82BA92BB02BB82301300A
:1007560083129B001B089807A22B01309B001B08E5
:100766009C079A2B98019C010028831299019A01F3
:1007760099019A0183121918C12BC22BCB2B051490
:1007860018080C3E84008313000886008510D32BBE
:1007960085141C080C3E840083130008860005108F
:1007A6000130990703189A0A00309A071A08803A06
:1007B600CF0087304F02031DE22BD1301902031CF4
:1007C600E52BE62BBD2B08008B238C008C238D009C
:1007D6008D238E008E238F008F239000902391000F
:1007E60091239200922393009323940094239500DF
:0A07F6009601970198018301952BED
:08400000FF3FFF3FFF3FFF3FC0
:02400E00F93F78
:00000001FF
