:02000000FE2BD5
:10073600831686018312860183128E018F010F08AC
:10074600803ACF0080304F02031DAB2B08300E02DB
:10075600031CAE2BAF2BB02BCD2B013083128C009C
:100766000E0AB72B03108C0DFF3E031DB52B0C088C
:10077600860041308D00EE308C008C0BC02B8D0B2B
:10078600C02B0000013083128E0703188F0A003039
:100796008F07A22B063083128E0000308F000F08C1
:1007A600803ACF0080304F02031DDB2B01300E0252
:1007B6000318DE2BDF2BE02B9F2B013083128C00DE
:1007C6000E0AE72B03108C0DFF3E031DE52B0C08CC
:1007D600860041308D00EE308C008C0BF02B8D0B9B
:1007E600F02B0000FF3083128E0703188F0AFF30AC
:0A07F6008F07D22B002883019B2BF4
:08400000FF3FFF3FFF3FFF3FC0
:02400E00F93F78
:00000001FF
