:02000000D62BFD
:100724003F340034063400345B3400344F34003436
:10073400663400346D3400347C34003407340034BF
:100744007F3400346F340034831686011F308500F3
:100754008312A301A401851DB02BB12BCD2B23083B
:10076400A00020070C3E8400831300088600033099
:10077400A2008A30A1005530A000A00BBF2BA10B12
:10078400BF2BA20BBF2BC62B01308312A307031868
:10079400A40A0030A4070A3023062404031DD32B23
:1007A400D42BAD2BAA2B002892238C0093238D00ED
:1007B40094238E0095238F00962390009723910015
:1007C40098239200992393009A2394009B239500E5
:1007D4009C2396009D2397009E2398009F239900B5
:1007E400A0239A00A1239B00A2239C00A3239D0085
:0C07F400A4239E00A5239F008301A62BD8
:08400000FF3FFF3FFF3FFF3FC0
:02400E00F93F78
:00000001FF
